{"abi":[{"type":"constructor","inputs":[{"name":"_entryPoint","type":"address","internalType":"address"}],"stateMutability":"nonpayable"},{"type":"function","name":"BISHOP_VALUE","inputs":[],"outputs":[{"name":"","type":"uint256","internalType":"uint256"}],"stateMutability":"view"},{"type":"function","name":"CUSD_TOKEN","inputs":[],"outputs":[{"name":"","type":"address","internalType":"address"}],"stateMutability":"view"},{"type":"function","name":"ESCROW_AMOUNT","inputs":[],"outputs":[{"name":"","type":"uint256","internalType":"uint256"}],"stateMutability":"view"},{"type":"function","name":"GAME_TIMEOUT","inputs":[],"outputs":[{"name":"","type":"uint256","internalType":"uint256"}],"stateMutability":"view"},{"type":"function","name":"KNIGHT_VALUE","inputs":[],"outputs":[{"name":"","type":"uint256","internalType":"uint256"}],"stateMutability":"view"},{"type":"function","name":"PAWN_VALUE","inputs":[],"outputs":[{"name":"","type":"uint256","internalType":"uint256"}],"stateMutability":"view"},{"type":"function","name":"QUEEN_VALUE","inputs":[],"outputs":[{"name":"","type":"uint256","internalType":"uint256"}],"stateMutability":"view"},{"type":"function","name":"ROOK_VALUE","inputs":[],"outputs":[{"name":"","type":"uint256","internalType":"uint256"}],"stateMutability":"view"},{"type":"function","name":"authorized","inputs":[{"name":"","type":"uint256","internalType":"uint256"},{"name":"","type":"address","internalType":"address"}],"outputs":[{"name":"","type":"bool","internalType":"bool"}],"stateMutability":"view"},{"type":"function","name":"cUSD","inputs":[],"outputs":[{"name":"","type":"address","internalType":"contract IERC20"}],"stateMutability":"view"},{"type":"function","name":"cancelGame","inputs":[{"name":"gameId","type":"uint256","internalType":"uint256"}],"outputs":[],"stateMutability":"nonpayable"},{"type":"function","name":"capturePiecePaymaster","inputs":[{"name":"gameId","type":"uint256","internalType":"uint256"},{"name":"captor","type":"address","internalType":"address"},{"name":"pieceType","type":"uint8","internalType":"enum MiniChessEscrowPaymaster.PieceType"},{"name":"signature","type":"bytes","internalType":"bytes"},{"name":"actualSigner","type":"address","internalType":"address"}],"outputs":[],"stateMutability":"nonpayable"},{"type":"function","name":"claimTimeout","inputs":[{"name":"gameId","type":"uint256","internalType":"uint256"}],"outputs":[],"stateMutability":"nonpayable"},{"type":"function","name":"createGameWithSession","inputs":[{"name":"sessionSignature","type":"bytes","internalType":"bytes"},{"name":"actualSigner","type":"address","internalType":"address"}],"outputs":[{"name":"","type":"uint256","internalType":"uint256"}],"stateMutability":"nonpayable"},{"type":"function","name":"endGame","inputs":[{"name":"gameId","type":"uint256","internalType":"uint256"},{"name":"winner","type":"address","internalType":"address"}],"outputs":[],"stateMutability":"nonpayable"},{"type":"function","name":"entryPoint","inputs":[],"outputs":[{"name":"","type":"address","internalType":"contract IEntryPoint"}],"stateMutability":"view"},{"type":"function","name":"gameCounter","inputs":[],"outputs":[{"name":"","type":"uint256","internalType":"uint256"}],"stateMutability":"view"},{"type":"function","name":"games","inputs":[{"name":"","type":"uint256","internalType":"uint256"}],"outputs":[{"name":"player1","type":"address","internalType":"address"},{"name":"player2","type":"address","internalType":"address"},{"name":"player1Escrow","type":"uint256","internalType":"uint256"},{"name":"player2Escrow","type":"uint256","internalType":"uint256"},{"name":"player1Balance","type":"uint256","internalType":"uint256"},{"name":"player2Balance","type":"uint256","internalType":"uint256"},{"name":"status","type":"uint8","internalType":"enum MiniChessEscrowPaymaster.GameStatus"},{"name":"winner","type":"address","internalType":"address"},{"name":"createdAt","type":"uint256","internalType":"uint256"},{"name":"lastMoveAt","type":"uint256","internalType":"uint256"}],"stateMutability":"view"},{"type":"function","name":"getGame","inputs":[{"name":"gameId","type":"uint256","internalType":"uint256"}],"outputs":[{"name":"player1","type":"address","internalType":"address"},{"name":"player2","type":"address","internalType":"address"},{"name":"player1Balance","type":"uint256","internalType":"uint256"},{"name":"player2Balance","type":"uint256","internalType":"uint256"},{"name":"status","type":"uint8","internalType":"enum MiniChessEscrowPaymaster.GameStatus"},{"name":"winner","type":"address","internalType":"address"},{"name":"createdAt","type":"uint256","internalType":"uint256"},{"name":"lastMoveAt","type":"uint256","internalType":"uint256"}],"stateMutability":"view"},{"type":"function","name":"getPieceValue","inputs":[{"name":"pieceType","type":"uint8","internalType":"enum MiniChessEscrowPaymaster.PieceType"}],"outputs":[{"name":"","type":"uint256","internalType":"uint256"}],"stateMutability":"pure"},{"type":"function","name":"getPlayerGameCount","inputs":[{"name":"player","type":"address","internalType":"address"}],"outputs":[{"name":"","type":"uint256","internalType":"uint256"}],"stateMutability":"view"},{"type":"function","name":"getPlayerGameHistory","inputs":[{"name":"player","type":"address","internalType":"address"},{"name":"limit","type":"uint256","internalType":"uint256"},{"name":"offset","type":"uint256","internalType":"uint256"}],"outputs":[{"name":"","type":"uint256[]","internalType":"uint256[]"}],"stateMutability":"view"},{"type":"function","name":"getPlayerStats","inputs":[{"name":"player","type":"address","internalType":"address"}],"outputs":[{"name":"gamesPlayed","type":"uint256","internalType":"uint256"},{"name":"gamesWon","type":"uint256","internalType":"uint256"},{"name":"gamesLost","type":"uint256","internalType":"uint256"},{"name":"totalEarned","type":"uint256","internalType":"uint256"},{"name":"totalLost","type":"uint256","internalType":"uint256"},{"name":"winRate","type":"uint256","internalType":"uint256"}],"stateMutability":"view"},{"type":"function","name":"isAuthorized","inputs":[{"name":"gameId","type":"uint256","internalType":"uint256"},{"name":"player","type":"address","internalType":"address"}],"outputs":[{"name":"","type":"bool","internalType":"bool"}],"stateMutability":"view"},{"type":"function","name":"isCaptureProcessed","inputs":[{"name":"gameId","type":"uint256","internalType":"uint256"},{"name":"captureId","type":"bytes32","internalType":"bytes32"}],"outputs":[{"name":"","type":"bool","internalType":"bool"}],"stateMutability":"view"},{"type":"function","name":"joinGameWithSession","inputs":[{"name":"gameId","type":"uint256","internalType":"uint256"},{"name":"sessionSignature","type":"bytes","internalType":"bytes"},{"name":"actualSigner","type":"address","internalType":"address"}],"outputs":[],"stateMutability":"nonpayable"},{"type":"function","name":"playerGameHistory","inputs":[{"name":"","type":"address","internalType":"address"},{"name":"","type":"uint256","internalType":"uint256"}],"outputs":[{"name":"","type":"uint256","internalType":"uint256"}],"stateMutability":"view"},{"type":"function","name":"playerStats","inputs":[{"name":"","type":"address","internalType":"address"}],"outputs":[{"name":"gamesPlayed","type":"uint256","internalType":"uint256"},{"name":"gamesWon","type":"uint256","internalType":"uint256"},{"name":"gamesLost","type":"uint256","internalType":"uint256"},{"name":"totalEarned","type":"uint256","internalType":"uint256"},{"name":"totalLost","type":"uint256","internalType":"uint256"}],"stateMutability":"view"},{"type":"function","name":"processedCaptures","inputs":[{"name":"","type":"uint256","internalType":"uint256"},{"name":"","type":"bytes32","internalType":"bytes32"}],"outputs":[{"name":"","type":"bool","internalType":"bool"}],"stateMutability":"view"},{"type":"event","name":"GameCancelled","inputs":[{"name":"gameId","type":"uint256","indexed":true,"internalType":"uint256"}],"anonymous":false},{"type":"event","name":"GameCreated","inputs":[{"name":"gameId","type":"uint256","indexed":true,"internalType":"uint256"},{"name":"player1","type":"address","indexed":true,"internalType":"address"}],"anonymous":false},{"type":"event","name":"GameEnded","inputs":[{"name":"gameId","type":"uint256","indexed":true,"internalType":"uint256"},{"name":"winner","type":"address","indexed":true,"internalType":"address"},{"name":"player1Payout","type":"uint256","indexed":false,"internalType":"uint256"},{"name":"player2Payout","type":"uint256","indexed":false,"internalType":"uint256"}],"anonymous":false},{"type":"event","name":"GameTimedOut","inputs":[{"name":"gameId","type":"uint256","indexed":true,"internalType":"uint256"},{"name":"claimer","type":"address","indexed":true,"internalType":"address"}],"anonymous":false},{"type":"event","name":"PieceCaptured","inputs":[{"name":"gameId","type":"uint256","indexed":true,"internalType":"uint256"},{"name":"captor","type":"address","indexed":true,"internalType":"address"},{"name":"pieceType","type":"uint8","indexed":false,"internalType":"enum MiniChessEscrowPaymaster.PieceType"},{"name":"amount","type":"uint256","indexed":false,"internalType":"uint256"}],"anonymous":false},{"type":"event","name":"PlayerJoined","inputs":[{"name":"gameId","type":"uint256","indexed":true,"internalType":"uint256"},{"name":"player2","type":"address","indexed":true,"internalType":"address"}],"anonymous":false},{"type":"event","name":"SessionAuthorized","inputs":[{"name":"gameId","type":"uint256","indexed":true,"internalType":"uint256"},{"name":"player","type":"address","indexed":true,"internalType":"address"}],"anonymous":false},{"type":"event","name":"StatsUpdated","inputs":[{"name":"player","type":"address","indexed":true,"internalType":"address"},{"name":"gamesPlayed","type":"uint256","indexed":false,"internalType":"uint256"},{"name":"gamesWon","type":"uint256","indexed":false,"internalType":"uint256"},{"name":"gamesLost","type":"uint256","indexed":false,"internalType":"uint256"},{"name":"totalEarned","type":"uint256","indexed":false,"internalType":"uint256"},{"name":"totalLost","type":"uint256","indexed":false,"internalType":"uint256"}],"anonymous":false},{"type":"error","name":"ECDSAInvalidSignature","inputs":[]},{"type":"error","name":"ECDSAInvalidSignatureLength","inputs":[{"name":"length","type":"uint256","internalType":"uint256"}]},{"type":"error","name":"ECDSAInvalidSignatureS","inputs":[{"name":"s","type":"bytes32","internalType":"bytes32"}]},{"type":"error","name":"ReentrancyGuardReentrantCall","inputs":[]}],"bytecode":{"object":"0x60c060405234801561000f575f5ffd5b50604051612bd1380380612bd183398101604081905261002e9161007b565b60017f9b779b17422d0df92223018b32b4d1fa46e071723d6817e2486d003becc55f005573617c31a89124107149a7785c2c0e5e7b6b4f5a006080526001600160a01b031660a0526100a8565b5f6020828403121561008b575f5ffd5b81516001600160a01b03811681146100a1575f5ffd5b9392505050565b60805160a051612ad06101015f395f81816104b80152610ad401525f818161029d0152818161086301528181611195015281816115ba0152818161169c01528181611b9001528181611c69015261217f0152612ad05ff3fe608060405234801561000f575f5ffd5b50600436106101c4575f3560e01c806386514131116100fe578063b0d691fe1161009e578063cdafbbb61161006e578063cdafbbb614610547578063e2dafe28146105ac578063f25764b5146105bb578063fc659db8146104a4575f5ffd5b8063b0d691fe146104b3578063b31060fe146104da578063bb574b9d14610507578063c009f94a1461051a575f5ffd5b8063958fd4c8116100d9578063958fd4c81461040e578063a2f77bcc14610421578063a77897e714610496578063afa557dd146104a4575f5ffd5b806386514131146103d557806386e773f1146103e857806393128735146103fb575f5ffd5b80633cbdc53111610169578063543481a111610144578063543481a11461038b57806358e2d5311461039a578063609c6d7f146103af57806369958ab9146103c2575f5ffd5b80633cbdc531146102f357806347126ebd146103305780634fd66eae1461034b575f5ffd5b8063117a5b90116101a4578063117a5b90146102135780631fccf672146102985780632e0be39a146102d757806338702b2e146102e0575f5ffd5b80618a7b146101c857806309376de0146101ea578063099420b61461020a575b5f5ffd5b6101d76703782dace9d9000081565b6040519081526020015b60405180910390f35b6101fd6101f8366004612569565b6105e3565b6040516101e19190612599565b6101d761070881565b6102826102213660046125db565b5f602081905290815260409020805460018201546002830154600384015460048501546005860154600687015460078801546008909801546001600160a01b039788169896881697959694959394929360ff8316936101009093041691908a565b6040516101e19a9998979695949392919061261a565b6102bf7f000000000000000000000000000000000000000000000000000000000000000081565b6040516001600160a01b0390911681526020016101e1565b6101d760055481565b6101d76102ee3660046126cd565b610702565b61032061030136600461271d565b600160209081525f928352604080842090915290825290205460ff1681565b60405190151581526020016101e1565b6102bf73617c31a89124107149a7785c2c0e5e7b6b4f5a0081565b61035e610359366004612747565b610a0f565b604080519687526020870195909552938501929092526060840152608083015260a082015260c0016101e1565b6101d76706f05b59d3b2000081565b6103ad6103a836600461276e565b610ac1565b005b6103206103bd36600461271d565b611002565b6103ad6103d03660046125db565b61102e565b6103ad6103e336600461271d565b611282565b6103ad6103f63660046125db565b61186b565b6101d76104093660046127e7565b611e61565b6101d761041c36600461280f565b611e8c565b61048261042f3660046125db565b5f9081526020819052604090208054600182015460048301546005840154600685015460078601546008909601546001600160a01b0395861697948616969395929460ff83169461010090930490931692565b6040516101e1989796959493929190612828565b6101d766b1a2bc2ec5000081565b6101d7670214e8348c4f000081565b6102bf7f000000000000000000000000000000000000000000000000000000000000000081565b6103206104e8366004612884565b5f91825260026020908152604080842092845291905290205460ff1690565b6103ad6105153660046128a4565b611f5a565b610320610528366004612884565b600260209081525f928352604080842090915290825290205460ff1681565b610584610555366004612747565b600360208190525f91825260409091208054600182015460028301549383015460049093015491939092909185565b604080519586526020860194909452928401919091526060830152608082015260a0016101e1565b6101d76722b1c8c1227a000081565b6101d76105c9366004612747565b6001600160a01b03165f9081526004602052604090205490565b6001600160a01b0383165f90815260046020526040902080546060919080841061061e575050604080515f81526020810190915290506106fb565b5f6106298686612926565b9050818111156106365750805b5f6106418683612939565b90505f8167ffffffffffffffff81111561065d5761065d6128fe565b604051908082528060200260200182016040528015610686578160200160208202803683370190505b5090505f5b828110156106f3578581896106a1600189612939565b6106ab9190612939565b6106b59190612939565b815481106106c5576106c561294c565b905f5260205f2001548282815181106106e0576106e061294c565b602090810291909101015260010161068b565b509450505050505b9392505050565b5f61070b612311565b5f600554600161071b9190612926565b6040517020aaaa2427a924ad22afa9a2a9a9a4a7a760791b602082015260318101919091524660518201526071016040516020818303038152906040528051906020012090505f6107d661079b837f19457468657265756d205369676e6564204d6573736167653a0a3332000000005f908152601c91909152603c902090565b87878080601f0160208091040260200160405190810160405280939291908181526020018383808284375f9201919091525061232c92505050565b9050836001600160a01b0316816001600160a01b03161461083a5760405162461bcd60e51b8152602060048201526019602482015278496e76616c69642073657373696f6e207369676e617475726560381b60448201526064015b60405180910390fd5b6040516323b872dd60e01b81523360048201523060248201526722b1c8c1227a000060448201527f00000000000000000000000000000000000000000000000000000000000000006001600160a01b0316906323b872dd906064016020604051808303815f875af11580156108b1573d5f5f3e3d5ffd5b505050506040513d601f19601f820116820180604052508101906108d59190612960565b61091a5760405162461bcd60e51b8152602060048201526016602482015275115cd8dc9bddc81d1c985b9cd9995c8819985a5b195960521b6044820152606401610831565b60058054905f6109298361297f565b90915550506005545f8181526020818152604080832080546001600160a01b0319163390811782556722b1c8c1227a000060028301819055600483015560068201805460ff1990811690915542600784018190556008840155600180865284872083885290955283862080549091169094179093559051909284917fc3e0f84839dc888c892a013d10c8f9d6dc05a21a879d0ce468ca558013e9121c9190a3604051339083907f55c6060043bf9848a0c2ba11e6e0acd30c47557a1f44fcc4ac1f7868763bc132905f90a350925050506106fb60015f516020612a7b5f395f51905f5255565b6001600160a01b0381165f908152600360208181526040808420815160a0810183528154808252600183015494820194909452600282015492810192909252928301546060820152600490920154608083015282918291829182918291908290610a79575f610a95565b81516020830151610a8b906064612997565b610a9591906129ae565b8251602084015160408501516060860151608090960151929d919c509a50939850965094509092505050565b610ac9612311565b336001600160a01b037f00000000000000000000000000000000000000000000000000000000000000001614610b345760405162461bcd60e51b815260206004820152601060248201526f13db9b1e48195b9d1c9e481c1bda5b9d60821b6044820152606401610831565b5f8681526020819052604090206001600682015460ff166003811115610b5c57610b5c6125f2565b14610b795760405162461bcd60e51b8152600401610831906129cd565b5f8781526001602090815260408083206001600160a01b038a16845290915290205460ff16610bdb5760405162461bcd60e51b815260206004820152600e60248201526d139bdd08185d5d1a1bdc9a5e995960921b6044820152606401610831565b80546001600160a01b0387811691161480610c05575060018101546001600160a01b038781169116145b610c425760405162461bcd60e51b815260206004820152600e60248201526d24b73b30b634b21031b0b83a37b960911b6044820152606401610831565b5f87878742604051602001610c5a94939291906129f6565b60408051601f1981840301815291815281516020928301205f8b81526002845282812082825290935291205490915060ff1615610ccd5760405162461bcd60e51b8152602060048201526011602482015270105b1c9958591e481c1c9bd8d95cdcd959607a1b6044820152606401610831565b5f8881526002602090815260408083208484529091528120805460ff191660011790558888886005811115610d0457610d046125f2565b6040516c434150545552455f504945434560981b6020820152602d81019390935260609190911b6bffffffffffffffffffffffff1916604d830152606182015246608182015260a1016040516020818303038152906040528051906020012090505f610dda610d9f837f19457468657265756d205369676e6564204d6573736167653a0a3332000000005f908152601c91909152603c902090565b88888080601f0160208091040260200160405190810160405280939291908181526020018383808284375f9201919091525061232c92505050565b9050846001600160a01b0316816001600160a01b031614610e315760405162461bcd60e51b8152602060048201526011602482015270496e76616c6964207369676e617475726560781b6044820152606401610831565b5f610e3b89611e8c565b90505f8111610e7c5760405162461bcd60e51b815260206004820152600d60248201526c496e76616c696420706965636560981b6044820152606401610831565b84546001600160a01b03908116908b1603610f14578085600501541015610edc5760405162461bcd60e51b8152602060048201526014602482015273496e73756666696369656e742062616c616e636560601b6044820152606401610831565b80856005015f828254610eef9190612939565b9250508190555080856004015f828254610f099190612926565b90915550610f929050565b8085600401541015610f5f5760405162461bcd60e51b8152602060048201526014602482015273496e73756666696369656e742062616c616e636560601b6044820152606401610831565b80856004015f828254610f729190612939565b9250508190555080856005015f828254610f8c9190612926565b90915550505b428560080181905550896001600160a01b03168b7f775d114a1f15f11ddb0104b87b6962f0baad611643f9ece767efbe37adbfa8158b84604051610fd7929190612a3c565b60405180910390a35050505050610ffa60015f516020612a7b5f395f51905f5255565b505050505050565b5f8281526001602090815260408083206001600160a01b038516845290915290205460ff165b92915050565b611036612311565b5f81815260208190526040812090600682015460ff16600381111561105d5761105d6125f2565b146110aa5760405162461bcd60e51b815260206004820152601760248201527f43616e206f6e6c792063616e63656c2077616974696e670000000000000000006044820152606401610831565b80546001600160a01b031633146111035760405162461bcd60e51b815260206004820152601760248201527f4f6e6c792063726561746f722063616e2063616e63656c0000000000000000006044820152606401610831565b60078101546111149061012c612926565b4210156111545760405162461bcd60e51b815260206004820152600e60248201526d576169742035206d696e7574657360901b6044820152606401610831565b60068101805460ff191660031790556002810180545f909155815460405163a9059cbb60e01b81526001600160a01b039182166004820152602481018390527f00000000000000000000000000000000000000000000000000000000000000009091169063a9059cbb906044016020604051808303815f875af11580156111dd573d5f5f3e3d5ffd5b505050506040513d601f19601f820116820180604052508101906112019190612960565b61123d5760405162461bcd60e51b815260206004820152600d60248201526c1499599d5b990819985a5b1959609a1b6044820152606401610831565b60405183907f681705fdbd93dba3b679fd712577e9a86d57c5551c520f8c74857deb57f9623f905f90a2505061127f60015f516020612a7b5f395f51905f5255565b50565b61128a612311565b5f8281526020819052604090206001600682015460ff1660038111156112b2576112b26125f2565b146112cf5760405162461bcd60e51b8152600401610831906129cd565b80546001600160a01b03163314806112f3575060018101546001600160a01b031633145b61132e5760405162461bcd60e51b815260206004820152600c60248201526b2737ba103090383630bcb2b960a11b6044820152606401610831565b80546001600160a01b0383811691161480611358575060018101546001600160a01b038381169116145b6113955760405162461bcd60e51b815260206004820152600e60248201526d24b73b30b634b2103bb4b73732b960911b6044820152606401610831565b6006810180546001600160a01b0384811661010081026001600160a81b031990931692909217600217909255600483015460058401548454919390925f92909116146113eb5783546001600160a01b03166113fa565b60018401546001600160a01b03165b84549091505f906001600160a01b03878116911614611419578261141b565b835b85549091505f906001600160a01b0388811691161461143a578461143c565b835b6001600160a01b0388165f9081526003602052604081208054929350919082906114658361297f565b9091555050600181018054905f61147b8361297f565b91905055506722b1c8c1227a00008311156114ba576114a26722b1c8c1227a000084612939565b816003015f8282546114b49190612926565b90915550505b6001600160a01b038089165f9081526004602090815260408083208054600181018255908452828420018d90559287168252600390529081208054909182906115028361297f565b9091555050600281018054905f6115188361297f565b91905055506722b1c8c1227a00008310156115575761153f836722b1c8c1227a0000612939565b816004015f8282546115519190612926565b90915550505b6001600160a01b0385165f90815260046020818152604083208054600181018255908452908320018c905589018190556005890155861561166b57875460405163a9059cbb60e01b81526001600160a01b039182166004820152602481018990527f00000000000000000000000000000000000000000000000000000000000000009091169063a9059cbb906044016020604051808303815f875af1158015611602573d5f5f3e3d5ffd5b505050506040513d601f19601f820116820180604052508101906116269190612960565b61166b5760405162461bcd60e51b8152602060048201526016602482015275141b185e595c880c481c185e5bdd5d0819985a5b195960521b6044820152606401610831565b851561174d57600188015460405163a9059cbb60e01b81526001600160a01b039182166004820152602481018890527f00000000000000000000000000000000000000000000000000000000000000009091169063a9059cbb906044016020604051808303815f875af11580156116e4573d5f5f3e3d5ffd5b505050506040513d601f19601f820116820180604052508101906117089190612960565b61174d5760405162461bcd60e51b8152602060048201526016602482015275141b185e595c880c881c185e5bdd5d0819985a5b195960521b6044820152606401610831565b60408051888152602081018890526001600160a01b038b16918c917f64e67454795640f66cef8019a707b9381952f2f1024a355d5470bafc82af1800910160405180910390a38154600183015460028401546003850154600486015460408051958652602086019490945292840191909152606083015260808201526001600160a01b038a16905f516020612a5b5f395f51905f529060a00160405180910390a28054600182015460028301546003840154600485015460408051958652602086019490945292840191909152606083015260808201526001600160a01b038616905f516020612a5b5f395f51905f529060a00160405180910390a2505050505050505061186760015f516020612a7b5f395f51905f5255565b5050565b611873612311565b5f8181526020819052604090206001600682015460ff16600381111561189b5761189b6125f2565b146118b85760405162461bcd60e51b8152600401610831906129cd565b80546001600160a01b03163314806118dc575060018101546001600160a01b031633145b6119175760405162461bcd60e51b815260206004820152600c60248201526b2737ba103090383630bcb2b960a11b6044820152606401610831565b61070881600801546119299190612926565b42101561196d5760405162461bcd60e51b815260206004820152601260248201527111d85b59481b9bdd081d1a5b5959081bdd5d60721b6044820152606401610831565b805433905f906001600160a01b031682146119925782546001600160a01b03166119a1565b60018301546001600160a01b03165b6006840180546001600160a01b0385811661010081026001600160a81b031990931692909217600217909255600486015460058701548754949550909390925f929116146119ef57816119f1565b825b86549091505f906001600160a01b03878116911614611a105783611a12565b825b6001600160a01b0387165f908152600360205260408120805492935091908290611a3b8361297f565b9091555050600181018054905f611a518361297f565b91905055506722b1c8c1227a0000831115611a9057611a786722b1c8c1227a000084612939565b816003015f828254611a8a9190612926565b90915550505b6001600160a01b038088165f9081526004602090815260408083208054600181018255908452828420018d9055928916825260039052908120805490918290611ad88361297f565b9091555050600281018054905f611aee8361297f565b91905055506722b1c8c1227a0000831015611b2d57611b15836722b1c8c1227a0000612939565b816004015f828254611b279190612926565b90915550505b6001600160a01b0387165f90815260046020818152604083208054600181018255908452908320018c90558a0181905560058a01558515611c3857885460405163a9059cbb60e01b81526001600160a01b039182166004820152602481018890527f00000000000000000000000000000000000000000000000000000000000000009091169063a9059cbb906044016020604051808303815f875af1158015611bd8573d5f5f3e3d5ffd5b505050506040513d601f19601f82011682018060405250810190611bfc9190612960565b611c385760405162461bcd60e51b815260206004820152600d60248201526c14185e5bdd5d0819985a5b1959609a1b6044820152606401610831565b8415611d1157600189015460405163a9059cbb60e01b81526001600160a01b039182166004820152602481018790527f00000000000000000000000000000000000000000000000000000000000000009091169063a9059cbb906044016020604051808303815f875af1158015611cb1573d5f5f3e3d5ffd5b505050506040513d601f19601f82011682018060405250810190611cd59190612960565b611d115760405162461bcd60e51b815260206004820152600d60248201526c14185e5bdd5d0819985a5b1959609a1b6044820152606401610831565b6040516001600160a01b038916908b907fbc9052fc5315398aa5015fb7b45be89c9f551d56843b266726e35b64de80cbc7905f90a360408051878152602081018790526001600160a01b038a16918c917f64e67454795640f66cef8019a707b9381952f2f1024a355d5470bafc82af1800910160405180910390a38154600183015460028401546003850154600486015460408051958652602086019490945292840191909152606083015260808201526001600160a01b038916905f516020612a5b5f395f51905f529060a00160405180910390a28054600182015460028301546003840154600485015460408051958652602086019490945292840191909152606083015260808201526001600160a01b038816905f516020612a5b5f395f51905f529060a00160405180910390a250505050505050505061127f60015f516020612a7b5f395f51905f5255565b6004602052815f5260405f208181548110611e7a575f80fd5b905f5260205f20015f91509150505481565b5f80826005811115611ea057611ea06125f2565b03611eb3575066b1a2bc2ec50000919050565b6001826005811115611ec757611ec76125f2565b03611edb5750670214e8348c4f0000919050565b6002826005811115611eef57611eef6125f2565b03611f035750670214e8348c4f0000919050565b6003826005811115611f1757611f176125f2565b03611f2b57506703782dace9d90000919050565b6004826005811115611f3f57611f3f6125f2565b03611f5357506706f05b59d3b20000919050565b505f919050565b611f62612311565b5f84815260208190526040812090600682015460ff166003811115611f8957611f896125f2565b14611fcb5760405162461bcd60e51b815260206004820152601260248201527147616d65206e6f7420617661696c61626c6560701b6044820152606401610831565b60018101546001600160a01b0316156120265760405162461bcd60e51b815260206004820152601960248201527f47616d6520616c72656164792068617320706c617965722032000000000000006044820152606401610831565b80546001600160a01b031633036120765760405162461bcd60e51b815260206004820152601460248201527343616e6e6f74206a6f696e206f776e2067616d6560601b6044820152606401610831565b6040517020aaaa2427a924ad22afa9a2a9a9a4a7a760791b6020820152603181018690524660518201525f906071016040516020818303038152906040528051906020012090505f6120f761079b837f19457468657265756d205369676e6564204d6573736167653a0a3332000000005f908152601c91909152603c902090565b9050836001600160a01b0316816001600160a01b0316146121565760405162461bcd60e51b8152602060048201526019602482015278496e76616c69642073657373696f6e207369676e617475726560381b6044820152606401610831565b6040516323b872dd60e01b81523360048201523060248201526722b1c8c1227a000060448201527f00000000000000000000000000000000000000000000000000000000000000006001600160a01b0316906323b872dd906064016020604051808303815f875af11580156121cd573d5f5f3e3d5ffd5b505050506040513d601f19601f820116820180604052508101906121f19190612960565b6122365760405162461bcd60e51b8152602060048201526016602482015275115cd8dc9bddc81d1c985b9cd9995c8819985a5b195960521b6044820152606401610831565b600180840180546001600160a01b031916331790556722b1c8c1227a000060038501819055600585015560068401805460ff1916828002179055504260088401555f878152600160208181526040808420338086529252808420805460ff19169093179092559051909189917f87969bc7faf902221a147b95ceba76e011c5efb0339a0a8ee7a2bb82d9cfbbd69190a3604051339088907f55c6060043bf9848a0c2ba11e6e0acd30c47557a1f44fcc4ac1f7868763bc132905f90a350505061230b60015f516020612a7b5f395f51905f5255565b50505050565b612319612354565b60025f516020612a7b5f395f51905f5255565b5f5f5f5f61233a8686612385565b92509250925061234a82826123ce565b5090949350505050565b5f516020612a7b5f395f51905f525460020361238357604051633ee5aeb560e01b815260040160405180910390fd5b565b5f5f5f83516041036123bc576020840151604085015160608601515f1a6123ae88828585612486565b9550955095505050506123c7565b505081515f91506002905b9250925092565b5f8260038111156123e1576123e16125f2565b036123ea575050565b60018260038111156123fe576123fe6125f2565b0361241c5760405163f645eedf60e01b815260040160405180910390fd5b6002826003811115612430576124306125f2565b036124515760405163fce698f760e01b815260048101829052602401610831565b6003826003811115612465576124656125f2565b03611867576040516335e2f38360e21b815260048101829052602401610831565b5f80807f7fffffffffffffffffffffffffffffff5d576e7357a4501ddfe92f46681b20a08411156124bf57505f91506003905082612544565b604080515f808252602082018084528a905260ff891692820192909252606081018790526080810186905260019060a0016020604051602081039080840390855afa158015612510573d5f5f3e3d5ffd5b5050604051601f1901519150506001600160a01b03811661253b57505f925060019150829050612544565b92505f91508190505b9450945094915050565b80356001600160a01b0381168114612564575f5ffd5b919050565b5f5f5f6060848603121561257b575f5ffd5b6125848461254e565b95602085013595506040909401359392505050565b602080825282518282018190525f918401906040840190835b818110156125d05783518352602093840193909201916001016125b2565b509095945050505050565b5f602082840312156125eb575f5ffd5b5035919050565b634e487b7160e01b5f52602160045260245ffd5b60048110612616576126166125f2565b9052565b6001600160a01b038b811682528a16602082015260408101899052606081018890526080810187905260a08101869052610140810161265c60c0830187612606565b6001600160a01b039490941660e082015261010081019290925261012090910152979650505050505050565b5f5f83601f840112612698575f5ffd5b50813567ffffffffffffffff8111156126af575f5ffd5b6020830191508360208285010111156126c6575f5ffd5b9250929050565b5f5f5f604084860312156126df575f5ffd5b833567ffffffffffffffff8111156126f5575f5ffd5b61270186828701612688565b909450925061271490506020850161254e565b90509250925092565b5f5f6040838503121561272e575f5ffd5b8235915061273e6020840161254e565b90509250929050565b5f60208284031215612757575f5ffd5b6106fb8261254e565b803560068110612564575f5ffd5b5f5f5f5f5f5f60a08789031215612783575f5ffd5b863595506127936020880161254e565b94506127a160408801612760565b9350606087013567ffffffffffffffff8111156127bc575f5ffd5b6127c889828a01612688565b90945092506127db90506080880161254e565b90509295509295509295565b5f5f604083850312156127f8575f5ffd5b6128018361254e565b946020939093013593505050565b5f6020828403121561281f575f5ffd5b6106fb82612760565b6001600160a01b038981168252881660208201526040810187905260608101869052610100810161285c6080830187612606565b6001600160a01b039490941660a082015260c081019290925260e09091015295945050505050565b5f5f60408385031215612895575f5ffd5b50508035926020909101359150565b5f5f5f5f606085870312156128b7575f5ffd5b84359350602085013567ffffffffffffffff8111156128d4575f5ffd5b6128e087828801612688565b90945092506128f390506040860161254e565b905092959194509250565b634e487b7160e01b5f52604160045260245ffd5b634e487b7160e01b5f52601160045260245ffd5b8082018082111561102857611028612912565b8181038181111561102857611028612912565b634e487b7160e01b5f52603260045260245ffd5b5f60208284031215612970575f5ffd5b815180151581146106fb575f5ffd5b5f6001820161299057612990612912565b5060010190565b808202811582820484141761102857611028612912565b5f826129c857634e487b7160e01b5f52601260045260245ffd5b500490565b6020808252600f908201526e47616d65206e6f742061637469766560881b604082015260600190565b8481526bffffffffffffffffffffffff198460601b1660208201525f60068410612a2257612a226125f2565b5060f89290921b6034830152603582015260550192915050565b6040810160068410612a5057612a506125f2565b928152602001529056feb8373f7d59a8eecc950efc3756a4ad134dd988e7b187a67eedf5b6935d2301719b779b17422d0df92223018b32b4d1fa46e071723d6817e2486d003becc55f00a2646970667358221220801ce6d38460bbf7df51a6bd0d0c93b285bd49de7d13a7e72258c96a0569168164736f6c634300081c0033","linkReferences":{}},"methodIdentifiers":{"BISHOP_VALUE()":"fc659db8","CUSD_TOKEN()":"47126ebd","ESCROW_AMOUNT()":"e2dafe28","GAME_TIMEOUT()":"099420b6","KNIGHT_VALUE()":"afa557dd","PAWN_VALUE()":"a77897e7","QUEEN_VALUE()":"543481a1","ROOK_VALUE()":"00008a7b","authorized(uint256,address)":"3cbdc531","cUSD()":"1fccf672","cancelGame(uint256)":"69958ab9","capturePiecePaymaster(uint256,address,uint8,bytes,address)":"58e2d531","claimTimeout(uint256)":"86e773f1","createGameWithSession(bytes,address)":"38702b2e","endGame(uint256,address)":"86514131","entryPoint()":"b0d691fe","gameCounter()":"2e0be39a","games(uint256)":"117a5b90","getGame(uint256)":"a2f77bcc","getPieceValue(uint8)":"958fd4c8","getPlayerGameCount(address)":"f25764b5","getPlayerGameHistory(address,uint256,uint256)":"09376de0","getPlayerStats(address)":"4fd66eae","isAuthorized(uint256,address)":"609c6d7f","isCaptureProcessed(uint256,bytes32)":"b31060fe","joinGameWithSession(uint256,bytes,address)":"bb574b9d","playerGameHistory(address,uint256)":"93128735","playerStats(address)":"cdafbbb6","processedCaptures(uint256,bytes32)":"c009f94a"},"id":17}