{"abi":[{"type":"constructor","inputs":[{"name":"_entryPoint","type":"address","internalType":"address"}],"stateMutability":"nonpayable"},{"type":"function","name":"BISHOP_VALUE","inputs":[],"outputs":[{"name":"","type":"uint256","internalType":"uint256"}],"stateMutability":"view"},{"type":"function","name":"CUSD_TOKEN","inputs":[],"outputs":[{"name":"","type":"address","internalType":"address"}],"stateMutability":"view"},{"type":"function","name":"ESCROW_AMOUNT","inputs":[],"outputs":[{"name":"","type":"uint256","internalType":"uint256"}],"stateMutability":"view"},{"type":"function","name":"GAME_TIMEOUT","inputs":[],"outputs":[{"name":"","type":"uint256","internalType":"uint256"}],"stateMutability":"view"},{"type":"function","name":"KNIGHT_VALUE","inputs":[],"outputs":[{"name":"","type":"uint256","internalType":"uint256"}],"stateMutability":"view"},{"type":"function","name":"PAWN_VALUE","inputs":[],"outputs":[{"name":"","type":"uint256","internalType":"uint256"}],"stateMutability":"view"},{"type":"function","name":"QUEEN_VALUE","inputs":[],"outputs":[{"name":"","type":"uint256","internalType":"uint256"}],"stateMutability":"view"},{"type":"function","name":"ROOK_VALUE","inputs":[],"outputs":[{"name":"","type":"uint256","internalType":"uint256"}],"stateMutability":"view"},{"type":"function","name":"authorized","inputs":[{"name":"","type":"uint256","internalType":"uint256"},{"name":"","type":"address","internalType":"address"}],"outputs":[{"name":"","type":"bool","internalType":"bool"}],"stateMutability":"view"},{"type":"function","name":"cUSD","inputs":[],"outputs":[{"name":"","type":"address","internalType":"contract IERC20"}],"stateMutability":"view"},{"type":"function","name":"cancelGame","inputs":[{"name":"gameId","type":"uint256","internalType":"uint256"}],"outputs":[],"stateMutability":"nonpayable"},{"type":"function","name":"capturePiecePaymaster","inputs":[{"name":"gameId","type":"uint256","internalType":"uint256"},{"name":"captor","type":"address","internalType":"address"},{"name":"pieceType","type":"uint8","internalType":"enum MiniChessEscrowPaymaster.PieceType"},{"name":"signature","type":"bytes","internalType":"bytes"}],"outputs":[],"stateMutability":"nonpayable"},{"type":"function","name":"claimTimeout","inputs":[{"name":"gameId","type":"uint256","internalType":"uint256"}],"outputs":[],"stateMutability":"nonpayable"},{"type":"function","name":"createGameWithSession","inputs":[{"name":"sessionSignature","type":"bytes","internalType":"bytes"}],"outputs":[{"name":"","type":"uint256","internalType":"uint256"}],"stateMutability":"nonpayable"},{"type":"function","name":"endGame","inputs":[{"name":"gameId","type":"uint256","internalType":"uint256"},{"name":"winner","type":"address","internalType":"address"}],"outputs":[],"stateMutability":"nonpayable"},{"type":"function","name":"entryPoint","inputs":[],"outputs":[{"name":"","type":"address","internalType":"contract IEntryPoint"}],"stateMutability":"view"},{"type":"function","name":"gameCounter","inputs":[],"outputs":[{"name":"","type":"uint256","internalType":"uint256"}],"stateMutability":"view"},{"type":"function","name":"games","inputs":[{"name":"","type":"uint256","internalType":"uint256"}],"outputs":[{"name":"player1","type":"address","internalType":"address"},{"name":"player2","type":"address","internalType":"address"},{"name":"player1Escrow","type":"uint256","internalType":"uint256"},{"name":"player2Escrow","type":"uint256","internalType":"uint256"},{"name":"player1Balance","type":"uint256","internalType":"uint256"},{"name":"player2Balance","type":"uint256","internalType":"uint256"},{"name":"status","type":"uint8","internalType":"enum MiniChessEscrowPaymaster.GameStatus"},{"name":"winner","type":"address","internalType":"address"},{"name":"createdAt","type":"uint256","internalType":"uint256"},{"name":"lastMoveAt","type":"uint256","internalType":"uint256"}],"stateMutability":"view"},{"type":"function","name":"getGame","inputs":[{"name":"gameId","type":"uint256","internalType":"uint256"}],"outputs":[{"name":"player1","type":"address","internalType":"address"},{"name":"player2","type":"address","internalType":"address"},{"name":"player1Balance","type":"uint256","internalType":"uint256"},{"name":"player2Balance","type":"uint256","internalType":"uint256"},{"name":"status","type":"uint8","internalType":"enum MiniChessEscrowPaymaster.GameStatus"},{"name":"winner","type":"address","internalType":"address"},{"name":"createdAt","type":"uint256","internalType":"uint256"},{"name":"lastMoveAt","type":"uint256","internalType":"uint256"}],"stateMutability":"view"},{"type":"function","name":"getPieceValue","inputs":[{"name":"pieceType","type":"uint8","internalType":"enum MiniChessEscrowPaymaster.PieceType"}],"outputs":[{"name":"","type":"uint256","internalType":"uint256"}],"stateMutability":"pure"},{"type":"function","name":"getPlayerGameCount","inputs":[{"name":"player","type":"address","internalType":"address"}],"outputs":[{"name":"","type":"uint256","internalType":"uint256"}],"stateMutability":"view"},{"type":"function","name":"getPlayerGameHistory","inputs":[{"name":"player","type":"address","internalType":"address"},{"name":"limit","type":"uint256","internalType":"uint256"},{"name":"offset","type":"uint256","internalType":"uint256"}],"outputs":[{"name":"","type":"uint256[]","internalType":"uint256[]"}],"stateMutability":"view"},{"type":"function","name":"getPlayerStats","inputs":[{"name":"player","type":"address","internalType":"address"}],"outputs":[{"name":"gamesPlayed","type":"uint256","internalType":"uint256"},{"name":"gamesWon","type":"uint256","internalType":"uint256"},{"name":"gamesLost","type":"uint256","internalType":"uint256"},{"name":"totalEarned","type":"uint256","internalType":"uint256"},{"name":"totalLost","type":"uint256","internalType":"uint256"},{"name":"winRate","type":"uint256","internalType":"uint256"}],"stateMutability":"view"},{"type":"function","name":"isAuthorized","inputs":[{"name":"gameId","type":"uint256","internalType":"uint256"},{"name":"player","type":"address","internalType":"address"}],"outputs":[{"name":"","type":"bool","internalType":"bool"}],"stateMutability":"view"},{"type":"function","name":"isCaptureProcessed","inputs":[{"name":"gameId","type":"uint256","internalType":"uint256"},{"name":"captureId","type":"bytes32","internalType":"bytes32"}],"outputs":[{"name":"","type":"bool","internalType":"bool"}],"stateMutability":"view"},{"type":"function","name":"joinGameWithSession","inputs":[{"name":"gameId","type":"uint256","internalType":"uint256"},{"name":"sessionSignature","type":"bytes","internalType":"bytes"}],"outputs":[],"stateMutability":"nonpayable"},{"type":"function","name":"playerGameHistory","inputs":[{"name":"","type":"address","internalType":"address"},{"name":"","type":"uint256","internalType":"uint256"}],"outputs":[{"name":"","type":"uint256","internalType":"uint256"}],"stateMutability":"view"},{"type":"function","name":"playerStats","inputs":[{"name":"","type":"address","internalType":"address"}],"outputs":[{"name":"gamesPlayed","type":"uint256","internalType":"uint256"},{"name":"gamesWon","type":"uint256","internalType":"uint256"},{"name":"gamesLost","type":"uint256","internalType":"uint256"},{"name":"totalEarned","type":"uint256","internalType":"uint256"},{"name":"totalLost","type":"uint256","internalType":"uint256"}],"stateMutability":"view"},{"type":"function","name":"processedCaptures","inputs":[{"name":"","type":"uint256","internalType":"uint256"},{"name":"","type":"bytes32","internalType":"bytes32"}],"outputs":[{"name":"","type":"bool","internalType":"bool"}],"stateMutability":"view"},{"type":"event","name":"GameCancelled","inputs":[{"name":"gameId","type":"uint256","indexed":true,"internalType":"uint256"}],"anonymous":false},{"type":"event","name":"GameCreated","inputs":[{"name":"gameId","type":"uint256","indexed":true,"internalType":"uint256"},{"name":"player1","type":"address","indexed":true,"internalType":"address"}],"anonymous":false},{"type":"event","name":"GameEnded","inputs":[{"name":"gameId","type":"uint256","indexed":true,"internalType":"uint256"},{"name":"winner","type":"address","indexed":true,"internalType":"address"},{"name":"player1Payout","type":"uint256","indexed":false,"internalType":"uint256"},{"name":"player2Payout","type":"uint256","indexed":false,"internalType":"uint256"}],"anonymous":false},{"type":"event","name":"GameTimedOut","inputs":[{"name":"gameId","type":"uint256","indexed":true,"internalType":"uint256"},{"name":"claimer","type":"address","indexed":true,"internalType":"address"}],"anonymous":false},{"type":"event","name":"PieceCaptured","inputs":[{"name":"gameId","type":"uint256","indexed":true,"internalType":"uint256"},{"name":"captor","type":"address","indexed":true,"internalType":"address"},{"name":"pieceType","type":"uint8","indexed":false,"internalType":"enum MiniChessEscrowPaymaster.PieceType"},{"name":"amount","type":"uint256","indexed":false,"internalType":"uint256"}],"anonymous":false},{"type":"event","name":"PlayerJoined","inputs":[{"name":"gameId","type":"uint256","indexed":true,"internalType":"uint256"},{"name":"player2","type":"address","indexed":true,"internalType":"address"}],"anonymous":false},{"type":"event","name":"SessionAuthorized","inputs":[{"name":"gameId","type":"uint256","indexed":true,"internalType":"uint256"},{"name":"player","type":"address","indexed":true,"internalType":"address"}],"anonymous":false},{"type":"event","name":"StatsUpdated","inputs":[{"name":"player","type":"address","indexed":true,"internalType":"address"},{"name":"gamesPlayed","type":"uint256","indexed":false,"internalType":"uint256"},{"name":"gamesWon","type":"uint256","indexed":false,"internalType":"uint256"},{"name":"gamesLost","type":"uint256","indexed":false,"internalType":"uint256"},{"name":"totalEarned","type":"uint256","indexed":false,"internalType":"uint256"},{"name":"totalLost","type":"uint256","indexed":false,"internalType":"uint256"}],"anonymous":false},{"type":"error","name":"ECDSAInvalidSignature","inputs":[]},{"type":"error","name":"ECDSAInvalidSignatureLength","inputs":[{"name":"length","type":"uint256","internalType":"uint256"}]},{"type":"error","name":"ECDSAInvalidSignatureS","inputs":[{"name":"s","type":"bytes32","internalType":"bytes32"}]},{"type":"error","name":"ReentrancyGuardReentrantCall","inputs":[]}],"bytecode":{"object":"0x60c060405234801561000f575f5ffd5b50604051612b79380380612b7983398101604081905261002e9161007b565b60017f9b779b17422d0df92223018b32b4d1fa46e071723d6817e2486d003becc55f005573874069fa1eb16d44d622f2e0ca25eea172369bc16080526001600160a01b031660a0526100a8565b5f6020828403121561008b575f5ffd5b81516001600160a01b03811681146100a1575f5ffd5b9392505050565b60805160a051612a786101015f395f81816104b80152611dbe01525f81816102b20152818161094c01528181610d2201528181610f270152818161140b015281816114ed015281816119e10152611aba0152612a785ff3fe608060405234801561000f575f5ffd5b50600436106101c4575f3560e01c806386514131116100fe578063b0d691fe1161009e578063e2dafe281161006e578063e2dafe2814610599578063f25764b5146105a8578063f7683440146105d0578063fc659db8146104a4575f5ffd5b8063b0d691fe146104b3578063b31060fe146104da578063c009f94a14610507578063cdafbbb614610534575f5ffd5b8063958fd4c8116100d9578063958fd4c81461040e578063a2f77bcc14610421578063a77897e714610496578063afa557dd146104a4575f5ffd5b806386514131146103d557806386e773f1146103e857806393128735146103fb575f5ffd5b80633cbdc53111610169578063543481a111610144578063543481a11461038d578063609c6d7f1461039c57806369958ab9146103af5780638396e35d146103c2575f5ffd5b80633cbdc531146102f557806347126ebd146103325780634fd66eae1461034d575f5ffd5b80630fcc4adf116101a45780630fcc4adf14610213578063117a5b90146102285780631fccf672146102ad5780632e0be39a146102ec575f5ffd5b80618a7b146101c857806309376de0146101ea578063099420b61461020a575b5f5ffd5b6101d76703782dace9d9000081565b6040519081526020015b60405180910390f35b6101fd6101f8366004612543565b6105e3565b6040516101e19190612573565b6101d761070881565b6102266102213660046125fa565b610702565b005b610297610236366004612642565b5f602081905290815260409020805460018201546002830154600384015460048501546005860154600687015460078801546008909801546001600160a01b039788169896881697959694959394929360ff8316936101009093041691908a565b6040516101e19a99989796959493929190612681565b6102d47f000000000000000000000000000000000000000000000000000000000000000081565b6040516001600160a01b0390911681526020016101e1565b6101d760055481565b6103226103033660046126ef565b600160209081525f928352604080842090915290825290205460ff1681565b60405190151581526020016101e1565b6102d473874069fa1eb16d44d622f2e0ca25eea172369bc181565b61036061035b366004612719565b610add565b604080519687526020870195909552938501929092526060840152608083015260a082015260c0016101e1565b6101d76706f05b59d3b2000081565b6103226103aa3660046126ef565b610b8f565b6102266103bd366004612642565b610bbb565b6101d76103d0366004612732565b610e0f565b6102266103e33660046126ef565b6110d3565b6102266103f6366004612642565b6116bc565b6101d7610409366004612771565b611cb2565b6101d761041c3660046127a7565b611cdd565b61048261042f366004612642565b5f9081526020819052604090208054600182015460048301546005840154600685015460078601546008909601546001600160a01b0395861697948616969395929460ff83169461010090930490931692565b6040516101e19897969594939291906127c0565b6101d766b1a2bc2ec5000081565b6101d7670214e8348c4f000081565b6102d47f000000000000000000000000000000000000000000000000000000000000000081565b6103226104e836600461281c565b5f91825260026020908152604080842092845291905290205460ff1690565b61032261051536600461281c565b600260209081525f928352604080842090915290825290205460ff1681565b610571610542366004612719565b600360208190525f91825260409091208054600182015460028301549383015460049093015491939092909185565b604080519586526020860194909452928401919091526060830152608082015260a0016101e1565b6101d76722b1c8c1227a000081565b6101d76105b6366004612719565b6001600160a01b03165f9081526004602052604090205490565b6102266105de36600461283c565b611dab565b6001600160a01b0383165f90815260046020526040902080546060919080841061061e575050604080515f81526020810190915290506106fb565b5f61062986866128ce565b9050818111156106365750805b5f61064186836128e1565b90505f8167ffffffffffffffff81111561065d5761065d6128a6565b604051908082528060200260200182016040528015610686578160200160208202803683370190505b5090505f5b828110156106f3578581896106a16001896128e1565b6106ab91906128e1565b6106b591906128e1565b815481106106c5576106c56128f4565b905f5260205f2001548282815181106106e0576106e06128f4565b602090810291909101015260010161068b565b509450505050505b9392505050565b61070a6122eb565b5f83815260208190526040812090600682015460ff16600381111561073157610731612659565b146107785760405162461bcd60e51b815260206004820152601260248201527147616d65206e6f7420617661696c61626c6560701b60448201526064015b60405180910390fd5b8054336001600160a01b03909116036107ca5760405162461bcd60e51b815260206004820152601460248201527321b0b73737ba10383630bc903cb7bab939b2b63360611b604482015260640161076f565b60018101546001600160a01b0316156108115760405162461bcd60e51b815260206004820152600960248201526811d85b5948199d5b1b60ba1b604482015260640161076f565b6040517020aaaa2427a924ad22afa9a2a9a9a4a7a760791b6020820152603181018590524660518201525f906071016040516020818303038152906040528051906020012090505f6108cd610892837f19457468657265756d205369676e6564204d6573736167653a0a3332000000005f908152601c91909152603c902090565b86868080601f0160208091040260200160405190810160405280939291908181526020018383808284375f9201919091525061230692505050565b90506001600160a01b03811633146109235760405162461bcd60e51b8152602060048201526019602482015278496e76616c69642073657373696f6e207369676e617475726560381b604482015260640161076f565b6040516323b872dd60e01b81523360048201523060248201526722b1c8c1227a000060448201527f00000000000000000000000000000000000000000000000000000000000000006001600160a01b0316906323b872dd906064016020604051808303815f875af115801561099a573d5f5f3e3d5ffd5b505050506040513d601f19601f820116820180604052508101906109be9190612908565b610a035760405162461bcd60e51b8152602060048201526016602482015275115cd8dc9bddc81d1c985b9cd9995c8819985a5b195960521b604482015260640161076f565b600180840180546001600160a01b031916331790556722b1c8c1227a000060038501819055600585015560068401805460ff1916828002179055504260088401555f868152600160208181526040808420338086529252808420805460ff19169093179092559051909188917f87969bc7faf902221a147b95ceba76e011c5efb0339a0a8ee7a2bb82d9cfbbd69190a3604051339087907f55c6060043bf9848a0c2ba11e6e0acd30c47557a1f44fcc4ac1f7868763bc132905f90a3505050610ad860015f516020612a235f395f51905f5255565b505050565b6001600160a01b0381165f908152600360208181526040808420815160a0810183528154808252600183015494820194909452600282015492810192909252928301546060820152600490920154608083015282918291829182918291908290610b47575f610b63565b81516020830151610b59906064612927565b610b63919061293e565b8251602084015160408501516060860151608090960151929d919c509a50939850965094509092505050565b5f8281526001602090815260408083206001600160a01b038516845290915290205460ff165b92915050565b610bc36122eb565b5f81815260208190526040812090600682015460ff166003811115610bea57610bea612659565b14610c375760405162461bcd60e51b815260206004820152601760248201527f43616e206f6e6c792063616e63656c2077616974696e67000000000000000000604482015260640161076f565b80546001600160a01b03163314610c905760405162461bcd60e51b815260206004820152601760248201527f4f6e6c792063726561746f722063616e2063616e63656c000000000000000000604482015260640161076f565b6007810154610ca19061012c6128ce565b421015610ce15760405162461bcd60e51b815260206004820152600e60248201526d576169742035206d696e7574657360901b604482015260640161076f565b60068101805460ff191660031790556002810180545f909155815460405163a9059cbb60e01b81526001600160a01b039182166004820152602481018390527f00000000000000000000000000000000000000000000000000000000000000009091169063a9059cbb906044016020604051808303815f875af1158015610d6a573d5f5f3e3d5ffd5b505050506040513d601f19601f82011682018060405250810190610d8e9190612908565b610dca5760405162461bcd60e51b815260206004820152600d60248201526c1499599d5b990819985a5b1959609a1b604482015260640161076f565b60405183907f681705fdbd93dba3b679fd712577e9a86d57c5551c520f8c74857deb57f9623f905f90a25050610e0c60015f516020612a235f395f51905f5255565b50565b5f610e186122eb565b5f6005546001610e2891906128ce565b6040517020aaaa2427a924ad22afa9a2a9a9a4a7a760791b602082015260318101919091524660518201526071016040516020818303038152906040528051906020012090505f610ea8610892837f19457468657265756d205369676e6564204d6573736167653a0a3332000000005f908152601c91909152603c902090565b90506001600160a01b0381163314610efe5760405162461bcd60e51b8152602060048201526019602482015278496e76616c69642073657373696f6e207369676e617475726560381b604482015260640161076f565b6040516323b872dd60e01b81523360048201523060248201526722b1c8c1227a000060448201527f00000000000000000000000000000000000000000000000000000000000000006001600160a01b0316906323b872dd906064016020604051808303815f875af1158015610f75573d5f5f3e3d5ffd5b505050506040513d601f19601f82011682018060405250810190610f999190612908565b610fde5760405162461bcd60e51b8152602060048201526016602482015275115cd8dc9bddc81d1c985b9cd9995c8819985a5b195960521b604482015260640161076f565b60058054905f610fed8361295d565b90915550506005545f8181526020818152604080832080546001600160a01b0319163390811782556722b1c8c1227a000060028301819055600483015560068201805460ff1990811690915542600784018190556008840155600180865284872083885290955283862080549091169094179093559051909284917fc3e0f84839dc888c892a013d10c8f9d6dc05a21a879d0ce468ca558013e9121c9190a3604051339083907f55c6060043bf9848a0c2ba11e6e0acd30c47557a1f44fcc4ac1f7868763bc132905f90a35092505050610bb560015f516020612a235f395f51905f5255565b6110db6122eb565b5f8281526020819052604090206001600682015460ff16600381111561110357611103612659565b146111205760405162461bcd60e51b815260040161076f90612975565b80546001600160a01b0316331480611144575060018101546001600160a01b031633145b61117f5760405162461bcd60e51b815260206004820152600c60248201526b2737ba103090383630bcb2b960a11b604482015260640161076f565b80546001600160a01b03838116911614806111a9575060018101546001600160a01b038381169116145b6111e65760405162461bcd60e51b815260206004820152600e60248201526d24b73b30b634b2103bb4b73732b960911b604482015260640161076f565b6006810180546001600160a01b0384811661010081026001600160a81b031990931692909217600217909255600483015460058401548454919390925f929091161461123c5783546001600160a01b031661124b565b60018401546001600160a01b03165b84549091505f906001600160a01b0387811691161461126a578261126c565b835b85549091505f906001600160a01b0388811691161461128b578461128d565b835b6001600160a01b0388165f9081526003602052604081208054929350919082906112b68361295d565b9091555050600181018054905f6112cc8361295d565b91905055506722b1c8c1227a000083111561130b576112f36722b1c8c1227a0000846128e1565b816003015f82825461130591906128ce565b90915550505b6001600160a01b038089165f9081526004602090815260408083208054600181018255908452828420018d90559287168252600390529081208054909182906113538361295d565b9091555050600281018054905f6113698361295d565b91905055506722b1c8c1227a00008310156113a857611390836722b1c8c1227a00006128e1565b816004015f8282546113a291906128ce565b90915550505b6001600160a01b0385165f90815260046020818152604083208054600181018255908452908320018c90558901819055600589015586156114bc57875460405163a9059cbb60e01b81526001600160a01b039182166004820152602481018990527f00000000000000000000000000000000000000000000000000000000000000009091169063a9059cbb906044016020604051808303815f875af1158015611453573d5f5f3e3d5ffd5b505050506040513d601f19601f820116820180604052508101906114779190612908565b6114bc5760405162461bcd60e51b8152602060048201526016602482015275141b185e595c880c481c185e5bdd5d0819985a5b195960521b604482015260640161076f565b851561159e57600188015460405163a9059cbb60e01b81526001600160a01b039182166004820152602481018890527f00000000000000000000000000000000000000000000000000000000000000009091169063a9059cbb906044016020604051808303815f875af1158015611535573d5f5f3e3d5ffd5b505050506040513d601f19601f820116820180604052508101906115599190612908565b61159e5760405162461bcd60e51b8152602060048201526016602482015275141b185e595c880c881c185e5bdd5d0819985a5b195960521b604482015260640161076f565b60408051888152602081018890526001600160a01b038b16918c917f64e67454795640f66cef8019a707b9381952f2f1024a355d5470bafc82af1800910160405180910390a38154600183015460028401546003850154600486015460408051958652602086019490945292840191909152606083015260808201526001600160a01b038a16905f516020612a035f395f51905f529060a00160405180910390a28054600182015460028301546003840154600485015460408051958652602086019490945292840191909152606083015260808201526001600160a01b038616905f516020612a035f395f51905f529060a00160405180910390a250505050505050506116b860015f516020612a235f395f51905f5255565b5050565b6116c46122eb565b5f8181526020819052604090206001600682015460ff1660038111156116ec576116ec612659565b146117095760405162461bcd60e51b815260040161076f90612975565b80546001600160a01b031633148061172d575060018101546001600160a01b031633145b6117685760405162461bcd60e51b815260206004820152600c60248201526b2737ba103090383630bcb2b960a11b604482015260640161076f565b610708816008015461177a91906128ce565b4210156117be5760405162461bcd60e51b815260206004820152601260248201527111d85b59481b9bdd081d1a5b5959081bdd5d60721b604482015260640161076f565b805433905f906001600160a01b031682146117e35782546001600160a01b03166117f2565b60018301546001600160a01b03165b6006840180546001600160a01b0385811661010081026001600160a81b031990931692909217600217909255600486015460058701548754949550909390925f929116146118405781611842565b825b86549091505f906001600160a01b038781169116146118615783611863565b825b6001600160a01b0387165f90815260036020526040812080549293509190829061188c8361295d565b9091555050600181018054905f6118a28361295d565b91905055506722b1c8c1227a00008311156118e1576118c96722b1c8c1227a0000846128e1565b816003015f8282546118db91906128ce565b90915550505b6001600160a01b038088165f9081526004602090815260408083208054600181018255908452828420018d90559289168252600390529081208054909182906119298361295d565b9091555050600281018054905f61193f8361295d565b91905055506722b1c8c1227a000083101561197e57611966836722b1c8c1227a00006128e1565b816004015f82825461197891906128ce565b90915550505b6001600160a01b0387165f90815260046020818152604083208054600181018255908452908320018c90558a0181905560058a01558515611a8957885460405163a9059cbb60e01b81526001600160a01b039182166004820152602481018890527f00000000000000000000000000000000000000000000000000000000000000009091169063a9059cbb906044016020604051808303815f875af1158015611a29573d5f5f3e3d5ffd5b505050506040513d601f19601f82011682018060405250810190611a4d9190612908565b611a895760405162461bcd60e51b815260206004820152600d60248201526c14185e5bdd5d0819985a5b1959609a1b604482015260640161076f565b8415611b6257600189015460405163a9059cbb60e01b81526001600160a01b039182166004820152602481018790527f00000000000000000000000000000000000000000000000000000000000000009091169063a9059cbb906044016020604051808303815f875af1158015611b02573d5f5f3e3d5ffd5b505050506040513d601f19601f82011682018060405250810190611b269190612908565b611b625760405162461bcd60e51b815260206004820152600d60248201526c14185e5bdd5d0819985a5b1959609a1b604482015260640161076f565b6040516001600160a01b038916908b907fbc9052fc5315398aa5015fb7b45be89c9f551d56843b266726e35b64de80cbc7905f90a360408051878152602081018790526001600160a01b038a16918c917f64e67454795640f66cef8019a707b9381952f2f1024a355d5470bafc82af1800910160405180910390a38154600183015460028401546003850154600486015460408051958652602086019490945292840191909152606083015260808201526001600160a01b038916905f516020612a035f395f51905f529060a00160405180910390a28054600182015460028301546003840154600485015460408051958652602086019490945292840191909152606083015260808201526001600160a01b038816905f516020612a035f395f51905f529060a00160405180910390a2505050505050505050610e0c60015f516020612a235f395f51905f5255565b6004602052815f5260405f208181548110611ccb575f80fd5b905f5260205f20015f91509150505481565b5f80826005811115611cf157611cf1612659565b03611d04575066b1a2bc2ec50000919050565b6001826005811115611d1857611d18612659565b03611d2c5750670214e8348c4f0000919050565b6002826005811115611d4057611d40612659565b03611d545750670214e8348c4f0000919050565b6003826005811115611d6857611d68612659565b03611d7c57506703782dace9d90000919050565b6004826005811115611d9057611d90612659565b03611da457506706f05b59d3b20000919050565b505f919050565b611db36122eb565b336001600160a01b037f00000000000000000000000000000000000000000000000000000000000000001614611e1e5760405162461bcd60e51b815260206004820152601060248201526f13db9b1e48195b9d1c9e481c1bda5b9d60821b604482015260640161076f565b5f8581526020819052604090206001600682015460ff166003811115611e4657611e46612659565b14611e635760405162461bcd60e51b815260040161076f90612975565b5f8681526001602090815260408083206001600160a01b038916845290915290205460ff16611ec55760405162461bcd60e51b815260206004820152600e60248201526d139bdd08185d5d1a1bdc9a5e995960921b604482015260640161076f565b80546001600160a01b0386811691161480611eef575060018101546001600160a01b038681169116145b611f2c5760405162461bcd60e51b815260206004820152600e60248201526d24b73b30b634b21031b0b83a37b960911b604482015260640161076f565b5f86868642604051602001611f44949392919061299e565b60408051601f1981840301815291815281516020928301205f8a81526002845282812082825290935291205490915060ff1615611fb75760405162461bcd60e51b8152602060048201526011602482015270105b1c9958591e481c1c9bd8d95cdcd959607a1b604482015260640161076f565b5f8781526002602090815260408083208484529091528120805460ff191660011790558787876005811115611fee57611fee612659565b6040516c434150545552455f504945434560981b6020820152602d81019390935260609190911b6bffffffffffffffffffffffff1916604d830152606182015246608182015260a1016040516020818303038152906040528051906020012090505f6120c4612089837f19457468657265756d205369676e6564204d6573736167653a0a3332000000005f908152601c91909152603c902090565b87878080601f0160208091040260200160405190810160405280939291908181526020018383808284375f9201919091525061230692505050565b9050876001600160a01b0316816001600160a01b03161461211b5760405162461bcd60e51b8152602060048201526011602482015270496e76616c6964207369676e617475726560781b604482015260640161076f565b5f61212588611cdd565b90505f81116121665760405162461bcd60e51b815260206004820152600d60248201526c496e76616c696420706965636560981b604482015260640161076f565b84546001600160a01b03908116908a16036121fe5780856005015410156121c65760405162461bcd60e51b8152602060048201526014602482015273496e73756666696369656e742062616c616e636560601b604482015260640161076f565b80856005015f8282546121d991906128e1565b9250508190555080856004015f8282546121f391906128ce565b9091555061227c9050565b80856004015410156122495760405162461bcd60e51b8152602060048201526014602482015273496e73756666696369656e742062616c616e636560601b604482015260640161076f565b80856004015f82825461225c91906128e1565b9250508190555080856005015f82825461227691906128ce565b90915550505b428560080181905550886001600160a01b03168a7f775d114a1f15f11ddb0104b87b6962f0baad611643f9ece767efbe37adbfa8158a846040516122c19291906129e4565b60405180910390a350505050506122e460015f516020612a235f395f51905f5255565b5050505050565b6122f361232e565b60025f516020612a235f395f51905f5255565b5f5f5f5f612314868661235f565b92509250925061232482826123a8565b5090949350505050565b5f516020612a235f395f51905f525460020361235d57604051633ee5aeb560e01b815260040160405180910390fd5b565b5f5f5f8351604103612396576020840151604085015160608601515f1a61238888828585612460565b9550955095505050506123a1565b505081515f91506002905b9250925092565b5f8260038111156123bb576123bb612659565b036123c4575050565b60018260038111156123d8576123d8612659565b036123f65760405163f645eedf60e01b815260040160405180910390fd5b600282600381111561240a5761240a612659565b0361242b5760405163fce698f760e01b81526004810182905260240161076f565b600382600381111561243f5761243f612659565b036116b8576040516335e2f38360e21b81526004810182905260240161076f565b5f80807f7fffffffffffffffffffffffffffffff5d576e7357a4501ddfe92f46681b20a084111561249957505f9150600390508261251e565b604080515f808252602082018084528a905260ff891692820192909252606081018790526080810186905260019060a0016020604051602081039080840390855afa1580156124ea573d5f5f3e3d5ffd5b5050604051601f1901519150506001600160a01b03811661251557505f92506001915082905061251e565b92505f91508190505b9450945094915050565b80356001600160a01b038116811461253e575f5ffd5b919050565b5f5f5f60608486031215612555575f5ffd5b61255e84612528565b95602085013595506040909401359392505050565b602080825282518282018190525f918401906040840190835b818110156125aa57835183526020938401939092019160010161258c565b509095945050505050565b5f5f83601f8401126125c5575f5ffd5b50813567ffffffffffffffff8111156125dc575f5ffd5b6020830191508360208285010111156125f3575f5ffd5b9250929050565b5f5f5f6040848603121561260c575f5ffd5b83359250602084013567ffffffffffffffff811115612629575f5ffd5b612635868287016125b5565b9497909650939450505050565b5f60208284031215612652575f5ffd5b5035919050565b634e487b7160e01b5f52602160045260245ffd5b6004811061267d5761267d612659565b9052565b6001600160a01b038b811682528a16602082015260408101899052606081018890526080810187905260a0810186905261014081016126c360c083018761266d565b6001600160a01b039490941660e082015261010081019290925261012090910152979650505050505050565b5f5f60408385031215612700575f5ffd5b8235915061271060208401612528565b90509250929050565b5f60208284031215612729575f5ffd5b6106fb82612528565b5f5f60208385031215612743575f5ffd5b823567ffffffffffffffff811115612759575f5ffd5b612765858286016125b5565b90969095509350505050565b5f5f60408385031215612782575f5ffd5b61278b83612528565b946020939093013593505050565b80356006811061253e575f5ffd5b5f602082840312156127b7575f5ffd5b6106fb82612799565b6001600160a01b03898116825288166020820152604081018790526060810186905261010081016127f4608083018761266d565b6001600160a01b039490941660a082015260c081019290925260e09091015295945050505050565b5f5f6040838503121561282d575f5ffd5b50508035926020909101359150565b5f5f5f5f5f60808688031215612850575f5ffd5b8535945061286060208701612528565b935061286e60408701612799565b9250606086013567ffffffffffffffff811115612889575f5ffd5b612895888289016125b5565b969995985093965092949392505050565b634e487b7160e01b5f52604160045260245ffd5b634e487b7160e01b5f52601160045260245ffd5b80820180821115610bb557610bb56128ba565b81810381811115610bb557610bb56128ba565b634e487b7160e01b5f52603260045260245ffd5b5f60208284031215612918575f5ffd5b815180151581146106fb575f5ffd5b8082028115828204841417610bb557610bb56128ba565b5f8261295857634e487b7160e01b5f52601260045260245ffd5b500490565b5f6001820161296e5761296e6128ba565b5060010190565b6020808252600f908201526e47616d65206e6f742061637469766560881b604082015260600190565b8481526bffffffffffffffffffffffff198460601b1660208201525f600684106129ca576129ca612659565b5060f89290921b6034830152603582015260550192915050565b60408101600684106129f8576129f8612659565b928152602001529056feb8373f7d59a8eecc950efc3756a4ad134dd988e7b187a67eedf5b6935d2301719b779b17422d0df92223018b32b4d1fa46e071723d6817e2486d003becc55f00a26469706673582212202e83725bcee6eef4eba4bd9afeeed7ca6cd006984d551df6fe025989604926fa64736f6c634300081c0033","linkReferences":{}},"methodIdentifiers":{"BISHOP_VALUE()":"fc659db8","CUSD_TOKEN()":"47126ebd","ESCROW_AMOUNT()":"e2dafe28","GAME_TIMEOUT()":"099420b6","KNIGHT_VALUE()":"afa557dd","PAWN_VALUE()":"a77897e7","QUEEN_VALUE()":"543481a1","ROOK_VALUE()":"00008a7b","authorized(uint256,address)":"3cbdc531","cUSD()":"1fccf672","cancelGame(uint256)":"69958ab9","capturePiecePaymaster(uint256,address,uint8,bytes)":"f7683440","claimTimeout(uint256)":"86e773f1","createGameWithSession(bytes)":"8396e35d","endGame(uint256,address)":"86514131","entryPoint()":"b0d691fe","gameCounter()":"2e0be39a","games(uint256)":"117a5b90","getGame(uint256)":"a2f77bcc","getPieceValue(uint8)":"958fd4c8","getPlayerGameCount(address)":"f25764b5","getPlayerGameHistory(address,uint256,uint256)":"09376de0","getPlayerStats(address)":"4fd66eae","isAuthorized(uint256,address)":"609c6d7f","isCaptureProcessed(uint256,bytes32)":"b31060fe","joinGameWithSession(uint256,bytes)":"0fcc4adf","playerGameHistory(address,uint256)":"93128735","playerStats(address)":"cdafbbb6","processedCaptures(uint256,bytes32)":"c009f94a"},"id":40}